:020000040001F9
:1060000048370020F9B3010013B4010015B40100B2
:106010000000000000000000000000000000000080
:1060200000000000000000000000000017B40100A4
:10603000000000000000000019B401001BB40100C2
:106040001DB401001DB401001DB401001DB4010008
:106050001DB40100000000001DB401001DB40100CA
:106060001DB401001DB401001DB401001DB40100E8
:106070001DB401001DB401001DB401001DB40100D8
:106080001DB40100EB8A01001DB401001DB4010024
:106090000D8B01001DB40100838F01001DB40100B0
:1060A0001DB401001DB4010000000000000000004C
:1060B00000000000000000000000000000000000E0
:1060C00000F002F800F03EF80CA030C808382418A0
:1060D0002D18A246671EAB4654465D46AC4201D120
:1060E00000F030F87E460F3E0FCCB6460126334214
:1060F00000D0FB1AA246AB46334318473C59000078
:106100005C590000103A02D378C878C1FAD8520717
:1061100001D330C830C101D504680C60704700005D
:106120000023002400250026103A01D378C1FBD8B3
:10613000520700D330C100D50B6070471FB51FBD9B
:1061400010B510BD05F0E0FB1146FFF7F7FF00F0BA
:10615000AEFD05F0F8FB03B4FFF7F2FF03BC05F05A
:10616000FFFB0000401E00BF00BF00BF00BF00BF1C
:1061700000BF00BF00BF00BF00BF00BF00BFF1D124
:106180007047000070B505460C46164602E00FCC7D
:106190000FC5103E102EFAD2082E02D303CC03C531
:1061A000083E042E07D301CC01C5361F03E0217839
:1061B0002970641C6D1C761EF9D270BD30B51304B5
:1061C0008C0023430524240707252D02641985002C
:1061D000635130BDF8B50020009000F09FFD0546EA
:1061E000012D13D068462EDF0446022C01D172B671
:1061F0000BE000BF2746002F06D000BFFEA2AA2159
:106200003846FFF7E7FF00BF00BF00BF0A2000F0DD
:1062100072FD0A2000F078FD012600BF002EFDD19E
:10622000012D13D062B6684600782FDF0446022C99
:106230000BD000BF2746002F06D000BFEEA2B6212C
:106240003846FFF7C7FF00BF00BF00BFF8BD70B5FD
:1062500004460D462A462146EA48FFF7BBFF70BDBB
:1062600070B5E949E94802F030F8C5B22946E84876
:1062700001F0EFF80446002C0ED0082C0CD0E548B5
:10628000844209D0E448844206D000BFDAA2DD216E
:106290002046FFF79FFF00BF70BD704770B50646F0
:1062A000DE49DF4802F011F885B2DE480068401C84
:1062B000DC4908602946DC4801F0BAFA0446002CA3
:1062C0000FD0082C0DD0D34884420AD0D248844243
:1062D00007D000BFC8A2FF210B312046FFF77AFF8D
:1062E00000BF0321CF48006805F05EFA002901D005
:1062F000012000E00020CD49087070BD70B5054652
:10630000CA480078002809D0C949CA4801F0DDFF11
:1063100084B22146C44801F0BAFA00BF70BD10B57E
:106320000446C548007801214840C3490870084622
:106330000178BD4801F0DCFA10BD10B5082000F06E
:10634000DAFC092000F0D7FC0F2000F0D4FC10BDCF
:10635000F8B500BF0020B94B05220621009002F0DD
:10636000D9FB054600BF2E46002E07D000BFA2A2D3
:10637000FF2152313046FFF72DFF00BF00BF00BFA5
:10638000AF4A0121AF4802F042FC044600BF254657
:10639000002D07D000BF98A2FF2158312846FFF7F3
:1063A00019FF00BF00BFA84A0121A84802F02FFC36
:1063B000044600BF2546002D07D000BF8EA2FF2156
:1063C0005D312846FFF706FF00BF00BFA04A01214C
:1063D000A04802F01CFC044600BF2546002D07D053
:1063E00000BF85A2FF2162312846FFF7F3FE00BF00
:1063F00000BF994A0121994802F009FC044600BFF8
:106400002546002D07D000BF7BA2FF21673128461B
:10641000FFF7E0FE00BF00BFF8BD3EB500BF684615
:10642000007801090901491C009168460078F021B3
:1064300088431030009000BF0A2289A168467CDFA3
:10644000044600BF2546002D07D000BF6AA2FF21E9
:106450007B312846FFF7BEFE00BF00BF834878DFD0
:10646000044600BF2546002D07D000BF62A2FF21D1
:106470007E312846FFF7AEFE00BF00BF002001902E
:106480000290FF219131684681804900C18000213E
:106490000181FF219131418101A87ADF044600BFCB
:1064A0002546002D07D000BF53A2FF218831284682
:1064B000FFF790FE00BF00BF3EBD30B593B0062190
:1064C00004916B4A07CA01AB07C369480C300068E6
:1064D0000090382105A805F065F90221684601758C
:1064E00001218175018304A907910321818501A9F7
:1064F0000C91002105A801F04FFE044600BF25467F
:10650000002D07D000BF3CA2FF21AE312846FFF787
:1065100061FE00BF00BF1421564805F043F900207A
:10652000544908704860087228200882B4204882C4
:1065300013B030BD30B59BB04F4801F0BCFA032119
:106540000091142116A805F02DF9002016900121C4
:1065500010A801776846189000BF18A800790109B3
:106560000901491C18A801710079F02188431030F5
:1065700018A9087100BF00BF16A8407B00090001E0
:1065800016A9487316A8407BF021884316A94873C2
:1065900000BF00BF16A8807B00090001887316A801
:1065A000807BF021884316A9887300BF00BF18A81C
:1065B000C07901090901491C18A8C171C079F021ED
:1065C0008843103018A9C87100BF00BF16A8007C0E
:1065D0000009000116A9087416A8007CF021884360
:1065E00016A9087400BF104801F0ECF8044600BF7B
:1065F0002546002D49D041E02E2E5C6D61696E2E3E
:1066000063000000EFBEADDEA82100200C200020BA
:106610002C2100200430000001340000B8210020AB
:10662000142000203C200020442100200A200020CB
:10663000C82100201C20002040200020D82100205C
:106640009B620100242000209D6201002820002080
:10665000FD6201002C2000201F630100302000207B
:106660004E6F726469635F48524D00004103000041
:106670008CB90100182100209421002000BFFA4AA3
:10668000FA492846FFF7A6FD00BF00BF142111A854
:1066900005F088F800BF10A8407C01090901491CD9
:1066A00010A84174407CF0218843103010A9487430
:1066B00000BF00BF11A8807B00090001401C11A988
:1066C000887311A8807BF0218843103011A988734A
:1066D00000BF00BF11A8C07B00090001C87311A84A
:1066E000C07BF021884311A9C87300BF00BF10A868
:1066F000007D01090901491C10A80175007DF021E8
:106700008843103010A9087500BF002011900121A6
:1067100010A8017200201390642110A8017411A91F
:10672000D34800F075FE044600BF2546002D07D073
:1067300000BFCD4ACD4912312846FFF74BFD00BFBF
:1067400000BF402101A805F02DF8CAA101A801F061
:1067500089FD00BF10A8007801090901491C10A893
:1067600001700078F0218843103010A9087000BF34
:1067700000BF10A8407800090001487010A84078B8
:10678000F021884310A9487000BF01A800F018FC50
:10679000044600BF2546002D07D000BFB24A112194
:1067A00049012846FFF716FD00BF00BF1BB030BDF2
:1067B00010B55120B4490860642048600120886009
:1067C0000873B24801F074FD8C20B1490860FF20C5
:1067D0002D3048600A20886000200873AD4801F021
:1067E00067FD6420AC490860FF20F5304860012057
:1067F000886000200873A94801F05AFD10BD70B5EB
:10680000002201210904A648006802F047FA044664
:1068100000BF2546002D07D000BF934A4B21C90079
:106820002846FFF7D7FC00BF00BF00220121C903A3
:106830009C48006802F032FA044600BF2546002D4D
:1068400007D000BF884A894958312846FFF7C2FC63
:1068500000BF00BF002294499448006802F01EFA6D
:10686000044600BF2546002D07D000BF7E4A7F4961
:106870005B312846FFF7AEFC00BF00BF00220521B8
:10688000C9038B48006802F009FA044600BF254698
:10689000002D07D000BF744A74495E312846FFF7C7
:1068A00099FC00BF00BF70BD38B5684603F06FFBB0
:1068B000044600BF2546002D07D000BF6A4A6B4939
:1068C0006C312846FFF786FC00BF00BF0098002807
:1068D00003D001207749087038BD774873DF04463C
:1068E00000BF2546002D07D000BF5F4A4F21C900D9
:1068F0002846FFF76FFC00BF00BF082000F004FA35
:1069000000BFE9E770B505462878002811D13B2182
:106910006A48008876DF044600BF2646002E07D06E
:1069200000BF514A51498C313046FFF753FC00BF3C
:1069300000BF70BD10B5044600BF4B4A4B499731AC
:106940002046FFF747FC00BF10BD30B587B01C21C3
:10695000684604F027FF002000900520C003019046
:106960000F20000402900321684601735448818976
:106970006846C18100210174524805905248069032
:10698000684602F096FB044600BF2546002D07D05E
:1069900000BF354A3549AE312846FFF71BFC00BF22
:1069A00000BF07B030BD70B504462088102804D061
:1069B00011280CD0192826D10FE0092000F0A4F9E5
:1069C000082000F0A6F9A0883C4908801CE00920B6
:1069D00000F09FF9FFF768FF16E0A079002811D1B9
:1069E000082000F096F934DF054600BF2E46002E41
:1069F00007D000BF1C4AB52189003046FFF7EAFBEB
:106A000000BF00BF00E000BF00BF70BD10B504466E
:106A1000022C02D0032C0BD100E000BF25480078E7
:106A2000002804D0002023490870FFF73DFF00E054
:106A300000BF00BF10BD10B50446204604F0B4F9F5
:106A400021461F4800F07BFD2146094800F0E3FB8A
:106A5000204602F002FC21461C4801F060F8204666
:106A6000FFF7A1FF10BD0000F86501000302000060
:106A70002C2100204E6F7264696353656D69636FEA
:106A80006E647563746F7200A82100200C200020D2
:106A9000B821002014200020C82100201C20002044
:106AA0002420002028200020662600002C20002022
:106AB000302000203A20002018210020082000204B
:106AC000442100200569010035690100942100205E
:106AD00010B50446204602F0B4FE2046FFF796FFAC
:106AE00010BDF8B500BF00235022A149122002F0CA
:106AF00000FA054600BF2E46002E06D000BF9D4A74
:106B00009D493046FFF766FB00BF00BF00BF002075
:106B100000900090684660DF044600BF2546002DC7
:106B200007D000BF934A944908312846FFF752FB2B
:106B300000BF00BF914802F012FA044600BF25468C
:106B4000002D07D000BF8B4A8B490D312846FFF737
:106B500041FB00BF00BF8A4802F00AFA044600BFAA
:106B60002546002D07D000BF824A834911312846AF
:106B7000FFF730FB00BF00BFF8BD10B503220021B6
:106B80000846FFF71BFB032200210120FFF716FB3D
:106B900010BDF8B506460F46144600BF2546002D29
:106BA00007D000BF734A74492C312846FFF712FB07
:106BB00000BF00BF0020F8BD7FB502F0E5FE04462F
:106BC00000BF2546002D07D000BF6A4A6A493B3105
:106BD0002846FFF7FFFA00BF00BF01206949096995
:106BE000C1400140002900D100E00020039003A82B
:106BF00003F059FC044600BF2546002D07D000BF16
:106C00005C4A5D4941312846FFF7E4FA00BF00BF06
:106C1000062101A8023004F0C3FD1E216846C18090
:106C2000007A40084000401C694608726846007AB5
:106C300002218843694608726846007A1C2188430D
:106C40000C30694608726846007A202188436946FC
:106C50000872072168464172102181724A480090EB
:106C60000121684601716946484803F08BFC0446DF
:106C700000BF2546002D07D000BF3E4A3E49503197
:106C80002846FFF7A7FA00BF00BF7FBD70B540DF01
:106C9000044600BF2546002D07D000BF354A3649BF
:106CA00059312846FFF796FA00BF00BF70BDFFF7C5
:106CB00044FBFFF762FFFFF74BFBFFF712FFFFF705
:106CC0007BFFFFF7AAFBFFF7F8FBFFF733FCFFF7AB
:106CD0006FFDFFF73AFEFFF792FDFFF7E5FD2C4948
:106CE0002C4800F04EFF2A492A4800F066FF00BFFA
:106CF000FFF7CCFFFCE703210522120707231B0245
:106D0000D2188300D1507047012181401D4A916003
:106D10007047012181401B4AD160704710B51E4861
:106D20004068C105C90D002920D00A46103A50B26A
:106D300000280DDA184B1C330407240F083CA40864
:106D4000A4001B598407E40EE3401B069B0F0BE0D5
:106D5000124B032424021B198408A4001B59840726
:106D6000E40EE3401B069B0FD8B210BD0420FCE7E5
:106D700090240020F865010022030000376A01001A
:106D8000D16A010000050050936B010034200020FF
:106D9000352000209421002000ED00E000E100E01B
:106DA00070B504460D4600BF002D01D0012000E063
:106DB00000200646002E05D100BFE6A23321FFF7D2
:106DC00009FA00BF00BF00BF002C01D0012000E085
:106DD00000200646002E05D100BFDEA23421FFF7B9
:106DE000F9F900BF00BF2878207029882879FF238F
:106DF0001B02194000200206080A1043607028791F
:106E00001B022968194000200204080C1043A070DE
:106E100029791B022868184000210902000E084346
:106E2000E07028792071287A6071190CA8680840F0
:106E3000000AA0710902A8680840000CE07170BD4A
:106E4000F8B505460E46002400BF002E01D00120F3
:106E500000E000200746002F05D100BFBDA24B2156
:106E6000FFF7B8F900BF00BF00BF002D01D001201F
:106E700000E000200746002F05D100BFB5A24C213D
:106E8000FFF7A8F900BF00BF32782046611CCCB2E2
:106E90002A542919708800F054F90019C4B229192C
:106EA000B08800F04EF90019C4B22919F08800F03A
:106EB00048F90019C4B200BF072C01D1012000E03D
:106EC00000200746002F05D100BFA2A25421FFF7E2
:106ED00081F900BF00BFF8BDF0B58FB007460D4681
:106EE00014461E4600BF002D01D0012000E0002006
:106EF00000900098002805D100BF96A26D21FFF7F1
:106F000069F900BF00BF00BF002C01DD012000E0D7
:106F1000002000900098002805D100BF8DA26E21AE
:106F2000FFF758F900BF00BF1C2107A804F03AFC86
:106F30006946087F02218843801C69460877002043
:106F400008900A900B900C900D9000BF012108A8AA
:106F500081766846078700BF002001903178684637
:106F6000017171784171807906218843811C6846DE
:106F70008171807908218843014668468171807952
:106F80001021884301466846817180794108490093
:106F900068468171142102A804F004FC0EA8029036
:106FA00001A80390684604820021418284820695EC
:106FB00002AA07A974480088149BA2DF0FB0F0BD95
:106FC0007FB5044600BF0121684681736F49818106
:106FD00000BF6D4A03A90120A0DF0546002D02D0A5
:106FE000284604B070BD208800280DDD6848009058
:106FF000228823463C3367486168FFF76DFF0546EA
:10700000002D01D02846ECE7208900280EDD6248DB
:107010000090228923463C335E48401FE168FFF719
:107020005BFF0546002D01D02846DAE7208A0028BC
:107030000EDD5A480090228A23463C335548001FF3
:107040006169FFF749FF0546002D01D02846C8E7D2
:10705000208B00280EDD52480090228B23463C33C3
:107060004C48801EE169FFF737FF0546002D01D02F
:107070002846B6E7208C00280EDD4A480090228C76
:1070800023463C334348C01E616AFFF725FF05468F
:10709000002D01D02846A4E7208D00280EDD4248AF
:1070A0000090228D23463C333A48401EE16AFFF7A8
:1070B00013FF0546002D01D0284692E7206B0028DB
:1070C00013D001A8216BFFF76BFE384823463C33F1
:1070D000082201A900902F48801FFFF7FDFE0546FA
:1070E000002D01D028467CE700BF606B00280FD040
:1070F0002F480090606B027923463C330168254895
:10710000401CFFF7E9FE0546002D01D0284668E740
:10711000A06B002813D001A8A16BFFF791FE2548B2
:1071200023463C33072201A900901A482730FFF775
:10713000D3FE0546002D01D0284652E700BF0020AF
:107140004FE702460A70FF2000021040001248700C
:10715000022070472E2E5C2E2E5C2E2E5C2E2E5C76
:107160002E2E5C536F757263655C626C655C626C3D
:10717000655F73657276696365735C626C655F6495
:1071800069732E6300000000422000200A180000EE
:1071900044200020292A00004C20002054200020F8
:1071A0005C200020642000206C200020742000203F
:1071B0007C200020842000208A88428270470022A0
:1071C000D24342827047F8B504460E46207D00281F
:1071D00020D0B51D2988608981421AD1288B0228C8
:1071E00017D12068002814D000BF00BFA97EEA7E16
:1071F000120211430846C107C90F002902D000201E
:10720000009001E0012000906946204622689047E6
:1072100000BF00BFF8BD70B505460C462088102899
:1072200004D0112807D050280FD109E02146284664
:10723000FFF7C2FF0AE021462846FFF7C0FF05E03E
:1072400021462846FFF7BFFF00E000BF00BF70BD2A
:10725000F0B591B004460D46207D002819D00020DD
:10726000099000BF08A8007901090901491C08A874
:1072700001710079F0218843103008A9087100BF1E
:10728000697B08A84171807906218843801C08A980
:1072900088711C210AA804F085FA08A8007A022146
:1072A0008843811C08A80172007A10218843217D3F
:1072B000002901D0012100E0002109011022114024
:1072C000084308A9087200200B900D900E90207DB5
:1072D000002801D009A800E000200F9000201090A5
:1072E00000BF0121684681737749818100BF00207A
:1072F0000290A97B68460172E97B4172807A06217F
:107300008843811C68468172807A0821884301463F
:1073100068468172807A10218843014668468172EE
:10732000807A4108490068468172297B01911421C5
:1073300004A804F037FA03A8049002A805900121DC
:1073400068460183002141830121818301A80890BF
:10735000A088A31D04AA0AA9A2DF0646002E02D017
:10736000304611B0F0BDA86800284DD000BF012103
:10737000684681735549818100BF00200290287CB6
:107380006946087200BF6846407A010909016846EB
:107390004172407AF02188436946487200BF6846CE
:1073A000807A06218843811C68468172807A082190
:1073B0008843014668468172807A102188430146DD
:1073C00068468172807A4108490068468172A968DE
:1073D00000F02AFF0746142104A804F0E3F903A8EB
:1073E000049002A805906846078300214183018B21
:1073F00081830890E08822460E3204A9A3DF064666
:10740000002E03D03046ACE70020E0810020A8E742
:10741000F8B504460D46286820600020C04360820D
:1074200028792075FF20207400BF012168468170F3
:107430002749018000BF221D69460120A0DF0646C2
:10744000002E01D03046F8BD29462046FFF700FF48
:10745000F9E733B585B004460025207C6946097EEE
:1074600088422FD0012104916846007E2074E08874
:1074700006AB04AA0021A4DF0546002D02D0284651
:1074800007B030BD608A1349884219D0207D00289A
:1074900016D00020009001900290039004210491E6
:1074A000E18868460180012181700021818004A863
:1074B000029006A80390608A6946A6DF054600E0B0
:1074C000082500BF2846DBE7192A0000082900002C
:1074D0000F180000FFFF00008A8802847047002216
:1074E000D2430284704738B505460C46208B0228EB
:1074F00017D12868002814D000BF00BFA17EE27E0B
:10750000120211430846C107C90F002902D000200A
:10751000009001E001200090694628462A689047C3
:1075200000BF38BD70B504460D46AE1D3188A08938
:10753000814203D131462046FFF7D5FF70BD70B5BB
:1075400005460C462088102804D0112807D0502862
:107550000FD109E021462846FFF7BEFF0AE0214689
:107560002846FFF7BCFF05E021462846FFF7DAFF73
:1075700000E000BF00BF70BDF7B582B004461746FB
:107580000020019001256079002803D00421019892
:10759000084301902220005D002803D002210198B9
:1075A000084301900398FF280ADD01210198084350
:1075B00001907919039800F0AAF94019C5B205E0C5
:1075C0000398C2B22846691CCDB23A544C20005BE5
:1075D000002803DD1021019808430190002618E0DF
:1075E000A81C14280BD94C20005B801B42007000A3
:1075F00023462433C118184604F08EF80DE079199B
:10760000720023462433985A00F081F94019C5B21C
:10761000761C4C20005BB042E2DC00BF4C20005BDB
:10762000801B81B24C20015301983870284605B068
:10763000F0BD30B595B005460C4600200D9000BF5A
:1076400008A8007D01090901491C08A80175007DF1
:10765000F0218843103008A9087500BF217B08A8D5
:107660004175807D06218843811C08A881751C21F5
:107670000EA804F097F808A8007E10218843103067
:1076800008A9087600200F90119012900DA8139071
:107690000020149000BF012168468177A0498183B2
:1076A00000BF00200690617B68460176A17B417691
:1076B000807E06218843811C68468176807E082171
:1076C0008843014668468176807E102188430146C2
:1076D00068468176807E41084900491C684681766B
:1076E000142108A804F05EF807A8089006A80990DD
:1076F00001AA00212846FFF73FFF014668460185A1
:10770000002141851421818501A80C90E8882B4631
:10771000083308AA0EA9A2DF15B030BD30B58FB06E
:1077200005460C461C2108A804F03CF808A9087876
:1077300002218843801C08A90870002009900B9042
:107740000C900D900E9000BF012168468172744923
:10775000491C018100BF00200190E17B6846017156
:10776000217C4171807906218843811C68468171A2
:10777000807908218843014668468171807910210B
:10778000884301466846817180794108490068460E
:107790008171142103A804F005F802A8039001A840
:1077A00004900121684681820021C1820121018368
:1077B000A0680790E8882B46103303AA08A9A2DF27
:1077C0000FB030BDF8B504460E4630682060307901
:1077D00060710020C04320840021222001554C20EC
:1077E000015300BF0121684681704E49018000BFEE
:1077F000A21D69460120A0DF0546002D01D02846C4
:10780000F8BD31462046FFF714FF0546002D01D094
:107810002846F5E7B068002808D031462046FFF733
:107820007DFF0546002D01D02846E9E70020E7E767
:10783000F0B58BB004460F46208C3B49884222D0DD
:1078400006AA39462046FFF797FE06460596002011
:107850000190029003900490218968468180012163
:1078600081710021018105A8039006A80490208C55
:1078700001A9A6DF0546002D04D16846808AB042E2
:1078800000D00C2500E0082528460BB0F0BD70B5EF
:1078900004460D464C20005B14280AD12622A1186C
:1078A000881E03F039FF4C20005B401E81B24C2043
:1078B00001534C20015B005B401C82B24C20025300
:1078C000490020462430455270BD01464C20405AA4
:1078D000142801D1012070470020FCE70246108CDB
:1078E000114B984202D15171002070470820FCE7EB
:1078F00022221154704713B582B004460120019032
:10790000208A03AB01AA0021A4DF04B010BD024607
:107910000A70FF20000210400012487002207047D9
:10792000372A00000D180000FFFF000070B59CB062
:107930000446B04B0FCB16AD0FC5AF4910A88185DB
:10794000891E0185A91D16A863DF05461AA9023103
:1079500016A863DF054600BF2E46002E06D000BFE6
:10796000A6A259213046FEF735FC00BF00BF1C21FE
:107970000FA803F017FF08A8007F02218843811C8D
:1079800008A80177007F08218843083008A90877F4
:1079900000200E9000BF08A8007E01090901491CC3
:1079A00008A80176007EF0218843103008A90876E7
:1079B00000BF00BF08A8407E01090901491C08A8B2
:1079C0004176407EF0218843103008A9487600BFF8
:1079D00008A8807E06218843811C08A881760EA80D
:1079E000149008A8007F10218843411808A8017747
:1079F00000200D9008A8807D06218843811C08A8DE
:107A00008175142103F0CEFE1BA808900DA80990E3
:107A1000082168468185052101857DA103C907915B
:107A2000069006A80C90142101A803F0BBFE1AA82A
:107A300001900DA8029008216846018205218181EC
:107A400006A8059000BF08A8007D01090901491C8E
:107A500008A80175007DF0218843103008A9087539
:107A600000BF00BF08A8407D01090901491C08A802
:107A70004175407DF0218843103008A9487500BF4A
:107A80006088231D08AA0FA9A2DF05466088234647
:107A90000C3301AA0FA9A2DF054600BF2E46002E17
:107AA00006D000BF55A28A213046FEF793FB00BFE7
:107AB00000BF1CB070BD70B586B005460020C04345
:107AC00028804C4B103B0FCB01AC0FC45248694689
:107AD0008882163101A863DF044600BF2646002EC7
:107AE00006D000BF45A23B213046FEF773FB00BF26
:107AF00000BFAA1C05A90120A0DF044600BF26463E
:107B0000002E06D000BF3DA241213046FEF762FBA9
:107B100000BF00BF2846FFF709FF06B070BD10B5D3
:107B20000A88102A04D0112A05D0502A26D106E04E
:107B30008B88038023E00023DB4303801FE00B4698
:107B40002033364C2360CA8B23461B681B78344C89
:107B50002370324B1B685B786370304B1B689B78DB
:107B6000A3702E4B1B68DB78E3702C4B1B681B79D2
:107B700023712A4B1B685B79637100E000BF00BF73
:107B800010BD30B585B004460D4605210491254D44
:107B900000200090019002900390A1886846018027
:107BA000012181700021818004A802900395208822
:107BB0006946A6DF012005B030BD30B585B004466A
:107BC0000D4605210491174D002000900190029070
:107BD0000390A18968460180012181700021818084
:107BE00004A80290039520886946A6DF012005B00D
:107BF00030BD0000ACB90100EFBE00002E2E5C6F5E
:107C000075725F736572766963652E6300000000AC
:107C10006E61766964000000CDAB00009420002006
:107C20008C20002035200020F7B584B004460F4694
:107C300006980678B01C1F2803DC6078801C1F287B
:107C400002DD0C2007B0F0BD1F20801B801E85B216
:107C50000295B11C781802A97DDF039003980028D3
:107C600001D00398EEE72078022808D16846008901
:107C7000A84204DC09200190684605890BE0082031
:107C800001906078002804D06078A84201DC657813
:107C900001E068460589681CC2B23046711CCEB24C
:107CA0003A543046721CD6B201993954069801787C
:107CB000A81C0818C1B2069801700020C2E7F8B5E8
:107CC00005460C462078001D1F2801DD0C20F8BD5C
:107CD000684679DF0646002E01D03046F7E70321DB
:107CE0002278501C2070A95419212278501C207031
:107CF000A954207841196846008800F08AFA217852
:107D0000401820700020E2E7F8B505460F461646F9
:107D10001C466868002801D10720F8BD2078801C27
:107D2000298840181F2801DD0C20F6E72878401C20
:107D3000C1B22278501C2070B1542178481C2070A8
:107D400077542A8823789819696803F081FC207891
:107D50002978401820700020DFE730B503461078FE
:107D6000C01C1F2801DD0C2030BD02241578681CC2
:107D700010704C550A241578681C10704C551578F5
:107D8000681C10704B550020EEE7FFB587B0064623
:107D90001D46109C0020069020780590002747E0A3
:107DA000B900706841180A88684602814988418193
:107DB000002203A902A865DF04900498002802D0DD
:107DC00004980BB0F0BD6846017B099881422ED122
:107DD0000698002801D0002000E0022001902078C1
:107DE0006946097B4118019808181F2801DD0C20FD
:107DF000E7E70698002809D12078401C20702278F7
:107E0000511C08982170A85401200690207842192E
:107E100003A902A865DF04900498002801D0049803
:107E2000CFE720786946097B4018207000BF7F1C8F
:107E30003088B842B4DC0698002806D0217805982E
:107E4000401C081AC1B2059829540020B9E7FFB5B3
:107E500081B0074615460A9E009602223846049BCA
:107E60000299FFF792FF0446002C02D0204605B08D
:107E7000F0BD0096102229463846049BFFF785FF87
:107E80000446002C01D02046F1E70020EFE7014630
:107E90000888062808DB08881922D201904205DDEF
:107EA0000888E04A904201D0072070474888062899
:107EB00008DB48881922D201904205DD4888D94A5A
:107EC000904201D00720F0E70888D64A904208D0B7
:107ED0004888904205D008884A88904201DD0720F2
:107EE000E3E70020E1E7F8B506460D4614462078A2
:107EF000801D1F2801D90C20F8BD3046FFF7C7FFB1
:107F00000746002F01D03846F6E705212278501C9D
:107F10002070A95412212278501C2070A954227874
:107F20005119308800F075F92178401820702278B6
:107F30005119708800F06DF92178401820700020E8
:107F4000DAE7F8B505460E4614462879801CC7B214
:107F50002078801CC0191F2801DD0C20F8BD781C7A
:107F6000C1B22278501C2070B154FF212278501CDD
:107F70002070B15422789119288800F04AF92178AC
:107F800040182070A88800280EDDA868002801D1BC
:107F90000720E3E7AA8823789819A96803F058FB1B
:107FA00020782979401820700020D7E7FEB50746D1
:107FB0000E461446386B002801D10720FEBD002074
:107FC000019032E0396B0C22019850430D1828794A
:107FD000801CC0B200900098401CC1B22278501C96
:107FE0002070B15416212278501C2070B154227890
:107FF0009119288800F00DF9217840182070A88880
:1080000000280EDDA868002801D10720D6E7AA883D
:1080100023789819A96803F01BFB20782979401868
:1080200020700198401CC0B201903420C15D0198BD
:108030008142C7DC0020C1E7F8B504460F4616466A
:108040000025002030702078002809D032463946BB
:108050002046FFF7E9FD0546002D01D02846F8BD72
:10806000A078002808D031463846FFF728FE05469C
:10807000002D01D02846F2E7A08800280ADD33460B
:108080003A460121201DFFF73FFE0546002D01D095
:108090002846E4E7E06800280BD00020E168085695
:1080A00032463946FFF759FE0546002D01D02846D5
:1080B000D5E7208A00280CDD3B4606220221204617
:1080C00010300096FFF7C3FE0546002D01D028466C
:1080D000C5E7208B00280CDD3B4607220321204604
:1080E00018300096FFF7B3FE0546002D01D0284654
:1080F000B5E7208C00280CDD3B46152214212046D4
:1081000020300096FFF7A3FE0546002D01D028463B
:10811000A5E7A06A002809D032463946A06AFFF7D1
:10812000E2FE0546002D01D0284698E7E06A0028C7
:1081300009D032463946E06AFFF703FF0546002DB5
:1081400001D028468BE73420005D002809DD324647
:1081500039462046FFF72AFF0546002D01D0284664
:108160007DE728467BE701468888002808D0886894
:10817000002805D08868007804221040002801D12A
:10818000072070470020FCE701468888002801DDB1
:10819000072070470020FCE7F3B593B00D4600219F
:1081A000129111911398002814D01398FFF7DBFF58
:1081B0000446002C02D0204615B0F0BD12AA09A931
:1081C0001398FFF739FF0446002C01D02046F3E74F
:1081D00009AE00E00026002D13D02846FFF7D4FF9B
:1081E0000446002C01D02046E6E711AA01A9284642
:1081F000FFF722FF0446002C01D02046DCE701AF48
:1082000000E0002710A803793A46017A304672DF71
:10821000D2E702460A70FF200002104000124870A8
:1082200002207047FFFF0000F8B505460E46002407
:1082300032782146641C6A5472782146641C6A5460
:1082400000BF022C01D1012000E000200746002FD2
:1082500005D100BF08A22021FDF7BCFF00BF00BF71
:108260002046F8BD70B504460D46284603F0CEF909
:108270002080656070BD00002E2E5C2E2E5C2E2EA0
:108280005C2E2E5C2E2E5C536F757263655C626C87
:10829000655C626C655F73657276696365735C6269
:1082A0006C655F7372765F636F6D6D6F6E2E6300CA
:1082B0000A7B002A04D04A6802600022027103E0AF
:1082C0000A68026001220271704702461079002894
:1082D0000FD048681368C01A8B68984204D9106898
:1082E0008B68C018106013E048681060002010719F
:1082F0000EE010680B68C01A8B68984204D91068A9
:108300008B68C01A106003E00868106001201071CB
:108310001068704710B5002819DAFB4A03071B0FD5
:10832000083B9B089B00D2588307DC0EFF23A34029
:108330009A438B071B0E8407E40EA3401A43F24BAB
:108340000407240F083CA408A4001A5118E0EF4ABF
:1083500003231B02D21883089B00D2588307DC0E2C
:10836000FF23A3409A438B071B0E8407E40EA34010
:108370001A43E64B032424021B198408A4001A5153
:1083800010BD10B50446E248846003211120FFF7B8
:10839000C1FF10BD10B501200004DE494860DD4971
:1083A00040394860112000F0F5FC112000F0E4FC99
:1083B0000120D94908602F20FDF7D4FE0120D749BC
:1083C000087010BD10B5112001218140CF4A8032C4
:1083D000116000BF01200004CE498860CD494039BA
:1083E00088600120CC4948602F20FDF7BBFE0120AA
:1083F000C94988600020CA4908602F20FDF7B2FEF5
:108400000020C649087010BDF0B502462420504334
:10841000C44B1B68C118C4480068401C002802D126
:10842000C148026059E0C0484B680068242460439A
:10843000BC4C246800194068834217D8BA480068C9
:1084400024235843B74B1B68C01840684B68C31AB5
:10845000B548006824246043B24C24680019436086
:10846000B14800680862B048026036E04B68AE4D23
:108470002C6828680DE024254543AA4E3668AD19BE
:108480006D685B1B044624254543A64E3668AD192E
:10849000286A451C002D07D024254543A14E366887
:1084A000AD196D689D42E6D3451C002D0CD02425E6
:1084B00045439C4E3668AD196D68EE1A2425454338
:1084C000984F3F68ED196E604B6008622425654344
:1084D000944E3668AD192A6200BFF0BDF8B5064665
:1084E000914805682C4609E0B44200D109E02546D0
:1084F000242060438B4909684018046A601C0028E6
:10850000F2D100BF601C002800D1F8BDA54210D1F7
:108510008548006824214843824909684018006A58
:108520008149086008460068401C002801D1FFF717
:1085300049FF242060437B4909684018476824208C
:108540006043784909684018016A24206843754AE5
:108550001268801801622420684372490968401833
:10856000046A601C00280CD0242060436D4909680F
:1085700040184068C119242060436A4A1268801874
:10858000416000BFC1E710B5112000F0FCFB10BD39
:1085900010B5142000F0F7FB10BD70B50446634819
:1085A0000068002813D0614AE169A0691268904709
:1085B000054600BF2E46002E07D000BF5CA2FF215B
:1085C00064313046FDF706FE00BF00BF02E0A1693E
:1085D000E069884770BDF8B553480068401C002822
:1085E0003AD0002700F008FC04464D4801682046B8
:1085F00000F005FC06464C48056811E0242068435D
:108600004849096844186068B04200D90BE06068C6
:10861000361A6068C719256A2046FFF7BEFF00BFFB
:10862000681C0028EAD100BF4D4800784D49097800
:10863000884209D14B480078401CC0B249490870B3
:10864000022801D100200870464800788000464981
:108650000F50FFF79DFF00BFF8BD0146404800786E
:10866000404A127890421DD03D480078401C3C4A58
:10867000107010460078022801D100201070384890
:1086800000788000384A10580860254A0868126847
:108690008018234A1060104600680002000A10602B
:1086A000012070470020086000BFFAE7FEB51E48B1
:1086B000006801902D480078009076E00098C00096
:1086C0002B490968441825786BE0182068436168D5
:1086D0000F18681CC5B2A078A84200D100253878D0
:1086E000022802D0032859D144E024217868484365
:1086F0000C4909684618307D002804D07868FFF7D7
:10870000EDFE002030754AE01CED00E000E100E0E5
:10871000001501404013014000100140C02000201E
:10872000AC2000209C200020A8200020BC2000209D
:108730002E2E5C2E2E5C2E2E5C2E2E5C2E2E5C534E
:108740006F757263655C6170705F636F6D6D6F6E86
:108750005C6170705F74696D65722E63000000006B
:10876000B8200020B9200020B0200020A020002048
:10877000A42000200CE0F849096824225143F74A5C
:108780001268881800210175F34A016A116000BF60
:10879000F1480068401C0028EDD100E000BF00BF98
:1087A00000BF6078A84290D100BF0098411EC9B2B6
:1087B0000091002882D1E84801680198814201D0E7
:1087C0000120FEBD0020FCE7F0B50346002426E0B2
:1087D000E14E366824277E43E04F3F68F019466833
:1087E0009E4203D94668F61A46601DE046689B1B08
:1087F00046683419002646600675D74E3568D64F50
:10880000066A3E600669002E08D00E193602360A46
:1088100086600669C66016680662156000BFCE48AD
:108820000068401C0028D3D100BFF0BDFEB507464C
:10883000C94800680290CA48007801906BE001982E
:10884000C000C849096845185DE0781C002807D0B9
:108850003E4624207043C14909684418276A23E032
:108860002978182359436A6850182978491C2970B7
:108870002978AA78914201D10021297046682421E3
:108880007143B64A12688C180178012902D1217D02
:10889000002900D037E08168A160C168E16001690A
:1088A00021614169E16100BFAF49A0680968401AD0
:1088B0000002000AAD49884208D2AB49A0680968A5
:1088C00000F09DFAE1684018606011E0A648A168D8
:1088D000006800F094FA0090E1680098814204D9A1
:1088E000E1680098081A606001E00020606000BF45
:1088F0000020A060E06001202075801E20623046CC
:10890000FFF782FD00BF781C00289ED12878697887
:1089100088429AD100BF0198411EC9B20191002836
:108920008DD18D4801680298814201D00120FEBDA1
:108930000020FCE7FEB588480068401C002834D0C1
:1089400085480068242148438449096840184568DF
:1089500000F052FA0190844804682146019800F022
:108960004EFAC61C82480078002801D1FFF712FD9C
:10897000AE4201D2284600E0304604192402240AFF
:1089800020467C49086000BF00F036FA009001994B
:10899000009800F034FAC71C2046019900F02FFA25
:1089A000874201D9FFF7EFFD01E0FFF70BFDFEBDA8
:1089B000FEB50020C04301906B4804686648076814
:1089C0006846FFF74AFE0546FFF770FE0646002D93
:1089D00005D001AA21460098FFF7F6FE012601986E
:1089E000FFF724FF002800D00126002E02D03846D1
:1089F000FFF7A0FFFEBD4170704770B502460B4601
:108A00005078411C9078884200D10021107888422B
:108A100001D1002070BD1960507818267043556848
:108A20002C182046F6E7FFB581B005460E461746DE
:108A3000E9004C4A126888186946FFF7DEFF0446D1
:108A4000002C02D1042005B0F0BD0120207066602A
:108A500000F0D2F9A060E760049820610A98606194
:108A6000E900404A126888180099FFF7C4FFFFF731
:108A70008FFD0020E7E7F8B504460E46E100394ACD
:108A8000126888186946FFF7B8FF0546002D01D126
:108A90000420F8BD022028706E60E100314A12689F
:108AA00088180099FFF7A7FFFFF772FD0020F0E795
:108AB00038B50446E1002B4A126888186946FFF76A
:108AC0009CFF0546002D01D1042038BD03202870ED
:108AD000001F6860E100234A126888180099FFF7B8
:108AE0008AFFFFF755FD0020EFE710B5002022496F
:108AF00008600021204841608160C16000201E495B
:108B0000403908604860FFF766FD10BD10B5FFF7FB
:108B10004FFF10BDFFB581B00E4617461C462046DC
:108B20008107890F002901D1012100E000210029DE
:108B300002D1072005B0F0BD002C01D10720F9E7D4
:108B4000FFF740FC0D490A9808600D48067003487D
:108B50000460002523E00000A82000209C200020C5
:108B6000A0200020A4200020AC200020FFFF7F00D8
:108B7000C02000204015014040110140BC200020D1
:108B8000982000200021242068439F4A1268115435
:108B9000242068439C4A1268801801756D1CB542F8
:108BA000F0DB24207043041903209849087098488A
:108BB0000460183400250CE0E900954A1268881812
:108BC00000210170417087704460182179430C19AD
:108BD0006D1C032DF0DB0020C0438E49086000208F
:108BE0008D4908708D490870142000F0D3F80321D6
:108BF0001420FFF78FFB142000F0BEF80198FFF758
:108C0000C0FB00F0F9F886490860002092E770B5D3
:108C100003460C467C480068002801D1082070BD3E
:108C2000002A01D10720FAE7002B01D10720F6E73F
:108C300000211CE024204843734D2D68285C002847
:108C400014D10125242048436F4E36683554242022
:108C500048436D4D2D6840194470242048436A4DA7
:108C60002D684019826119600020D8E7491C6D48C1
:108C700000788142DEDB0420D1E710B500F092F8E5
:108C8000012802D0032804D101E0002403E00124DC
:108C900001E0022400BF00BF204610BDFEB504461F
:108CA0000D46164658480068002801D10820FEBD30
:108CB0005C480078844201D2052D01D20720F6E7F6
:108CC0002420604350490968085C012801D008202D
:108CD000EDE7242060434C4909684018407801289A
:108CE00001D1284600E000200746FFF7C6FF3B46BB
:108CF0002A46214600960190FFF795FED7E770B50A
:108D0000044641480068002801D1082070BD45484C
:108D10000078844201D30720F8E7242060433A49D1
:108D20000968085C012801D00820EFE7FFF7A5FFDC
:108D300005462146FFF79FFEE8E710B53248006878
:108D4000002801D1082010BDFFF797FF0446FFF768
:108D5000AFFEF8E710B5044600F04EF820600020A2
:108D600010BD70B505460E4614463146284600F043
:108D700046F82060002070BDC206D20E012191404D
:108D8000294A11607047C206D20E01219140274A3C
:108D900011607047C206D20E01219140234A8032F1
:108DA0001160704710B522484068C105C90D0029FF
:108DB00020D00A46103A50B200280DDA1C4B1C3362
:108DC0000407240F083CA408A4001B598407E40EE0
:108DD000E3401B069B0F0BE0134B032424021B19DB
:108DE0008408A4001B598407E40EE3401B069B0F74
:108DF000D8B210BD0420FCE70E4840687047024618
:108E0000501A0002000A70479C200020A020002079
:108E1000A4200020A8200020B8200020B920002095
:108E2000AC2000209820002000E100E000E200E0FB
:108E300000ED00E00015014070B506460C461546F1
:108E400029462046FDF703FA70BDF8B55A48007868
:108E5000002800D1F8BD59480068002801D1012040
:108E600000E00020054656480068002801D1012096
:108E700000E00020064600BF002D14D1684651DFF7
:108E80000446052C01D101250CE0002C06D000BFC2
:108E90004CA269212046FDF79DF903E0474900985F
:108EA0000968884700BF002E1AD1544800880090F6
:108EB00069465348006861DF0446052C01D101264C
:108EC0000DE0002C06D000BF3EA280212046FDF719
:108ED00081F904E04A48006839490968884700BFB9
:108EE000002D02D0002E00D000E0C5E700BF00BF7B
:108EF000B0E7FFB581B00C4616461F46002C02D1E4
:108F0000072005B0F0BD20468107890F002901D157
:108F1000012100E00021002901D10720F1E73848B4
:108F2000046036480680374807603749019810DFEB
:108F30000546002D01D02846E3E701201E490870B0
:108F4000162026DFDDE710B511DF0446002C01D026
:108F5000012000E0002018490870204610BD01469D
:108F6000002901D10E207047154801600020FAE762
:108F70000146002901D10E207047104801600020F1
:108F8000FAE770B51F480068002811D01D48006836
:108F90008047044600BF2546002D07D000BF09A228
:108FA000FF2133312846FDF715F900BF00BF01E06E
:108FB000FFF74BFF70BD0000CE200020D420002022
:108FC000D02000202E2E5C2E2E5C2E2E5C2E2E5CB1
:108FD0002E2E5C536F757263655C73645F636F6D97
:108FE0006D6F6E5C736F66746465766963655F68E8
:108FF000616E646C65722E6300000000CC2000205E
:10900000C8200020C4200020398E01000146488875
:10901000B74A1288904206DB4888B54A5288904287
:1090200001DC012070470020FCE738B50546B14857
:109030000088B14988423BD0B0480078401CAF4915
:109040000870AF48007B097888420FDBA849A9481F
:10905000008875DF0446002C07D0A94880690028E5
:1090600003D0A74881692046884721E00020A34912
:109070000870A348007C00280FD03B219D48008841
:1090800076DF0446002C07D09D488069002803D075
:109090009B4881692046884700BF9948406900285D
:1090A00006D000200090964841696846884700BF76
:1090B00038BD70B505461C2229469148FDF762F877
:1090C000002090490870286800280BD008228848A2
:1090D000296802F0BDFA86487ADF0446002C08D0E1
:1090E000204670BD82487BDF0446002C01D020461C
:1090F000F7E70020C0437F49088000207F490870BF
:10910000814A00218148FFF782FDEAE710B57F48D8
:109110000068FFF7F4FD10BD38B57D48FFF776FF16
:10912000002829D17748007800280AD0744840697F
:10913000002820D000200090714841696846884787
:1091400019E06E480078002802D16D48456801E0BA
:109150006B488568002229466C480068FFF79EFD31
:109160000446002C07D066488069002803D0644874
:109170008169204688470AE061484069002806D096
:10918000012000905E4841696846884700BF002082
:109190005C49087038BD10B50446A0885549088060
:1091A000082221460E315A4802F052FA0020534953
:1091B00008705348C089002801D1FFF7ADFF10BDEA
:1091C00070B505460020C0434A49088000204B493D
:1091D00008704E480068FFF792FD0446002C07D047
:1091E00047488069002803D0454881692046884760
:1091F00070BD70B50546AC1D20884149C9898842BB
:1092000020D1208B02281DD100BF00BFA17EE27EAD
:10921000120211430846C107C90F002902D0FFF707
:109220007BFF0FE039480068FFF769FD0646002E16
:1092300007D033488069002803D03148816930461F
:10924000884700BF70BD10B504460822A11D3048F4
:1092500002F0FEF9FFF760FF10BD10B5044620884C
:10926000102806D0112808D012280ED0502810D16E
:1092700007E02046FFF78FFF0CE02046FFF7A0FF36
:1092800008E02046FFF7B5FF04E02046FFF7DBFFCC
:1092900000E000BF00BF10BD38B5044608222146DB
:1092A000134802F0D5F912487ADF0546002D1CD18B
:1092B0001748FFF7ABFE00280BD1012011490870B9
:1092C0000B490C48008875DF054601200B490870E2
:1092D0000BE00B484069002806D0012000900848A8
:1092E00041696846884700BF0025284638BD000010
:1092F000D8200020E2200020FFFF0000E020002016
:10930000E0240020F02000202B900100EC20002021
:10931000E4200020002314214143FC4A535414212B
:10932000414389184B8001231421414389188B60E4
:109330000023142141438918CB601421414389182B
:109340000B611421414389188B80704710B50020B0
:10935000EF490880EF490870EC49091F0870487010
:109360008870002403E02046FFF7D4FF641C0A2C19
:10937000F9D310BDFFB583B004460F46154603264A
:10938000E448007800280BD1002D06D1069800286B
:1093900003D10220DF49087002E00120DD49087096
:1093A000DC480078030002F0E2FA07FD05314E8444
:1093B000BAD7FD00D8484069401C002808D00122D7
:1093C0001207126991B2D44A506902F0EDF902E035
:1093D000012000074069401E01210907096989B27F
:1093E000484302900120000700690004820C01201C
:1093F0000007006980B278430146029821DF0646E3
:10940000002E02D10220C3490870D0E0384620DF88
:109410000646002E16D1002D11D1069800280AD13B
:109420002078042803D10720BA4908700AE00520F3
:10943000B849087006E00420B649087002E003202D
:10944000B4490870B3E0B4484069401C002808D013
:1094500001221207126991B2AF4A506902F0A4F9D1
:1094600002E0012000074069401E01210907096947
:1094700089B24843012109070290096989B27943F9
:1094800008462A46029921DF0646002E10D106988A
:1094900000280AD12078042803D106209D490870AD
:1094A00006E005209B49087002E0042099490870F5
:1094B0007DE099484069401C002808D0012212072D
:1094C000126991B2944A506902F06EF902E00120EB
:1094D00000074069401E01210907096989B2484314
:1094E000A900401861884018012109070290096904
:1094F00089B27943AA00891862888818069A029965
:1095000021DF0646002E09D12078042803D1062049
:109510008049087002E005207E49087047E001207C
:109520000007006980B27843AB00C01802906088E1
:1095300082082169029821DF0646002E0BD1002DFA
:1095400006D10698002803D107207249087002E06E
:109550000620704908702AE06F484069401C0028C6
:1095600008D001221207126991B26B4A506902F0C9
:109570001BF902E0012000074069401E0121090794
:10958000096989B24843019001200007006981B24E
:10959000019802F009F9029020DF0646002E04D15E
:1095A000072000E002E05B49087000E000BF00BF58
:1095B000304607B0F0BDF0B585B00F275348001F07
:1095C00000781421484351494418E568207802285E
:1095D00004D0042823D005286FD16FE020690390C0
:1095E0004B48008886026088801B0490039880198D
:1095F0000390A088801945190121890204988842A6
:1096000006D2049882082846039921DF074605E020
:10961000FF2201322846039921DF074681E0A06836
:1096200000013E49401800890490A06800014018DC
:1096300040890390A0680001401840680290029899
:10964000A84205D10399049848436188884202D012
:10965000A06802280DD101200007006981B22846C8
:1096600002F0A2F82A4909884618304620DF07464A
:1096700022E001200007006981B2284602F094F838
:10968000064601200007006980B27043281A80084E
:10969000019001200007006980B2711C4843618875
:1096A0004919401A8008009031462046009B019AD3
:1096B000FFF760FE074600BF33E031E001200007FE
:1096C000006981B2284602F06FF80646A088411969
:1096D00001200007006980B27043081A80080490D6
:1096E000A08840196188421801200007006980B2F3
:1096F000711C4843801A8008039031462046039B22
:10970000049AFFF737FE07460BE000000025002013
:10971000FC200020FF20002000100010C8250020A1
:1097200000BF00BF002F02D10120F94988703846E0
:1097300005B0F0BDFFB581B0064617460024F448D9
:1097400040780A2837D0F2480078F1494978401823
:10975000C4B20A2C02DB20460A38C4B2142060438B
:10976000EB49091D0E541420604340180761142072
:1097700060434118029805C8CA608860142060439D
:10978000E34A121D80180499418014206043801818
:109790000A9981800025101F8078002805D1FFF7E5
:1097A0000AFF0546112D00D10025D9484078401CFC
:1097B000D749487000E00425284605B0F0BD10B533
:1097C0000024D3484078002807DDFFF7F4FE044664
:1097D000002C02D0112C00D10024204610BDF8B579
:1097E0000446CB48007814214843C949091D0E5C42
:1097F000081F007814214843C549091D4018806896
:109800000001C4490D58C248007814214843C0499A
:10981000091D40184088091F0090097814225143FF
:10982000BB4A121D89180B69111F09781422514374
:10983000B74A121D89180846083022463146A84703
:10984000F8BDFEB505460026B148807801287DD1D7
:109850000020AF498870B0480078082811D1022D47
:1098600003D10020AC49087002E00020AB49087029
:10987000FFF7A5FF0646002E02D03046FFF7AFFFE8
:10988000FEBD022D02D0032D79D174E0A0480078EE
:10989000142148439E49091D4418A1480088401CD2
:1098A0009F4908802078022807D108460088800256
:1098B0006188884201DB012000E000200746207813
:1098C000052805D194480078072801D1012000E03F
:1098D000002002902078042805D18F4800780728BE
:1098E00001D1012000E000200190207804280BD154
:1098F0008B48008880026188884205DB86480078B2
:10990000002801D1012000E00020009002980028EA
:1099100007D10198002804D10098002801D1002F18
:109920001FD000207C4908703046FFF758FF784967
:109930000878FFF7EFFC00207949088074484078E8
:10994000401E734948700846007800E01AE0401C49
:109950000870084600780A2803DB084600780A38B1
:109960000870FFF72CFF0646002E02D03046FFF7A6
:1099700036FF05E003E00D20FFF731FF00E000BFF8
:1099800000BF00BF00BF7BE770B5FFF7DFFC002022
:109990006449088064484069401C002808D00122BE
:1099A0001207126991B2604A506901F0FDFE02E0AF
:1099B000012000074069801E01210907096989B259
:1099C00048435A49086000205549088000BF0DE00F
:1099D000002102014F4B99500201D218118102015E
:1099E000D21891810201D2185181401C0028EFD079
:1099F0000820494908704C484069401C002808D09C
:109A000001221207126991B2474A506901F0CCFE57
:109A100002E0012000074069401E01210907096991
:109A200089B24843064601200007006981B23046EA
:109A300001F0BAFE054620DF0446002C04D10120C7
:109A40003349887035490870204670BDF8B5044622
:109A50000D4600BF31480078002801D10820F8BD2C
:109A600000BF002C01D10E20F9E7002D01D10E20FE
:109A7000F5E72068002801D10E20F0E7A088012139
:109A80000907096989B2884202DCA088102801DA36
:109A90000720E4E7E088002830D023484069401CD4
:109AA000002808D001221207126991B21E4A50699B
:109AB00001F07AFE02E0012000074069401E01210A
:109AC0000907096989B24843E188A2885143174AC6
:109AD00012688918884211D3E088A188484301217F
:109AE0000907096989B288420ADDA18801221207A3
:109AF000126990B201F062FE002901D00720AEE7A2
:109B000020798007800F002812D00720A7E70000E7
:109B1000FC240020C8250020FF200020FE2000207B
:109B2000FC200020F420002000100010F82000206D
:109B3000FE480088012801D1042090E7FB480088F6
:109B40002860FB4800686860F84909880901F94AFB
:109B5000891868684860F5490988090120685050EB
:109B6000A088F2490988090189180881E088EF492D
:109B700009880901891848810027A688E1884E4391
:109B800000BF781C87B201200007006980B2B04294
:109B900005D201200007006980B2361A00E00026D5
:109BA00001200007006980B2E14909684018E049D6
:109BB000086001200007006980B2B042E1D9DB48AB
:109BC00000880001DB4940188781D8480088401C84
:109BD000D6490880002042E73CB5034600BFD6487E
:109BE0000078002801D108203CBD00BF002B01D126
:109BF0000E20F9E7002A01D10E20F5E718680028A9
:109C000005D118680001CB4C2058002801D107204D
:109C1000EAE75C68186801940090019C18680001EC
:109C2000C44D401900894843201801900098000154
:109C30002C4600194089009C240164192489604342
:109C4000009C2401641964680019019CA04201D899
:109C50000720C9E7019C0098546010600020C3E70A
:109C6000F8B504460E4615461F4600BFB2480078B8
:109C7000002801D10820F8BD00BF002E01D10E2020
:109C8000F9E7002C01D10E20F5E72068002805D166
:109C900020680001A7490858002801D10720EAE7F9
:109CA00020680001A3494018408921680901A14AA0
:109CB00089180989484321680901891849684018A9
:109CC0006168884201D80720D5E7002D06D02068BA
:109CD0000001984940180089A84201DA0720CAE724
:109CE000E81921680901934A89180989884201DD28
:109CF0000720C0E7304600F05CF9002804D0384661
:109D000000F057F9002801D11020B4E7606800F096
:109D100050F9002801D11020ADE72B4632462146EC
:109D200002200097FFF706FDA5E7F8B504460E46AA
:109D300015461F4600BF80480078002801D1082042
:109D4000F8BD00BF002E01D10E20F9E7002C01D193
:109D50000E20F5E72068002805D12068000175492C
:109D60000858002801D10720EAE72068000171495E
:109D700040184089216809016E4A891809894843B9
:109D8000216809018918496840186168884201D82A
:109D90000720D5E7002D06D020680001654940184E
:109DA0000089A84201DA0720CAE7E81921680901F9
:109DB000604A89180989884201DD0720C0E73046DA
:109DC00000F0F7F8002804D0384600F0F2F8002838
:109DD00001D11020B4E7606800F0EBF8002801D151
:109DE0001020ADE72B463246214605200097FFF7AD
:109DF000A1FCA5E7FFB581B00C4615461E4600BF85
:109E00004D480078002802D1082005B0F0BD00BF01
:109E1000002C01D10E20F8E70198002801D10E2076
:109E2000F3E72068002805D120680001414908585F
:109E3000002801D10720E8E7206800013D494018CB
:109E40004089216809013B4A8918098948432168EA
:109E500009018918496840186168884201D80720BB
:109E6000D3E7002D06D02068000132494018008950
:109E7000A84201DA0720C8E7A819216809012D4A7C
:109E800089180989884201DD0720BEE7019800F0A2
:109E900090F8002804D0304600F08BF8002801D15B
:109EA0001020B2E7606800F084F8002801D110208B
:109EB000ABE7606881192A46019801F0C9FB00955B
:109EC000206800011B490F58002203212046019BF6
:109ED000B847002099E7F8B504460D4600BF16487C
:109EE0000078002801D10820F8BD00BF002C01D166
:109EF0000E20F9E72068002805D1206800010D49EF
:109F00000858002801D10720EEE720680001094920
:109F10004018408921680901064A8918098948437F
:109F20002168090189184968401807E0F4200020D9
:109F3000F8200020C8250020FE200020616888420B
:109F400001D80720D0E7606800F033F8002801D17D
:109F50001020C9E723681B011A4FDB1962685B6890
:109F6000D01A226812013B46D218118901F01CFC5C
:109F7000002901D00720B7E700202B4602462146E2
:109F800000900420FFF7D6FB06463046ACE70146BA
:109F900000BF0D480078002801D10820704700BF9D
:109FA000002901D10E20F9E7084840780860002018
:109FB000F4E701468807800F002801D1012070478F
:109FC0000020FCE7C8250020FE200020FC24002003
:109FD00070B503460C460820002115E00C254D43C2
:109FE000FE4EAD19AD7A2540002D0CD0FC4DAB4294
:109FF00005D00C254D43AD192D899D4202D111602C
:10A00000002003E00520491C0029E7D000BF70BDF7
:10A0100010B504461C216143F24A891808461130E4
:10A02000062101F0BDFB1C216143EE4A8818102176
:10A0300001F0B6FBFF211C206043EA4A801801743E
:10A040001C206043801881760021C9431C20604396
:10A0500080180183204601F03CF910BD7CB505460F
:10A06000A9B26A46E048FFF7B7FD0446002C09D1C3
:10A0700050216846FFF72FFF0446002C02D12846E6
:10A08000FFF7C6FF20467CBDF8B505460E461746CD
:10A090000520009000241BE0002D06D11C20604309
:10A0A000D0494018008BB8420DD0002D0FD01C2194
:10A0B0006143CC4A8918084610300722294601F02E
:10A0C00077FA002803D134600020009002E0641C7D
:10A0D000072CE1D300BF0098F8BD10B5044601215C
:10A0E0000C206043BD4A80188172891E0C20604399
:10A0F00080180181FF210C2060438018C1720C215F
:10A1000061438818072101F04BFB10BD10B50446D0
:10A11000002010BDF0B587B007460C461420019012
:10A1200061780C225143AD4A8918088901AA02A915
:10A13000AADF0646002E46D1617818225143AB4A69
:10A140008918081D69468A8802A901F031FA002899
:10A1500012D160780C214843A0494018807A02212E
:10A16000084002282FD06178182251439F4A88184E
:10A17000182101F017FB26E06078182148439B491D
:10A180000858002801D09A4D00E09A4D6946898808
:10A19000607818225043954A115061781822514333
:10A1A000924A8918081D69468A8802A9FBF7EAFFC6
:10A1B0006078182250438D4A81183423182238467B
:10A1C000A847064600BF002007B0F0BD02460020A9
:10A1D000704770B505460C46617818225143834A92
:10A1E0008818342318222946FFF704FE0646002E5D
:10A1F0000DD16078182148437C490858401C00283C
:10A2000005D10021607818225043784A1150304619
:10A2100070BD024600207047F8B5044600260027AE
:10A220006078182148437149085800281FD0607889
:10A230000C21484369494018807A40210840402851
:10A2400015D160780C21484364494018807A202158
:10A25000084020280BD060781821484363494018F3
:10A26000061D6078182148436049085A87B2617812
:10A270000C225143594A891808893A463146A9DFC8
:10A280000546002D00D05C4D2846F8BD0146002053
:10A2900070470146002902D1574833387047FF20E4
:10A2A000087048708870C8700020F7E7FFB58BB061
:10A2B0000F461D4600BF51480068002801D10FB06D
:10A2C000F0BD00BF1498502800D9F8E70120029093
:10A2D00007A8FFF7DEFF064600BF0196019E002E8D
:10A2E00006D000BF464A47490198FBF773FF00BFFD
:10A2F00000BF00216846017708A8017006951498F0
:10A3000005900020019017E0019881B203AA364819
:10A31000FFF762FC0646002E0BD1082203A90B981A
:10A3200001F046F9002804D10198C1B2684681774E
:10A3300005E00198401C019001980728E4D300BF74
:10A340006846807FFF2848D0042F0AD114985028EF
:10A3500003D1202008A9087081E0402008A90870D6
:10A360007DE02049681A1C2101F01EFA0446072CE2
:10A370001DD205A809900D98002810D16946887F44
:10A3800001218140204A12681140002901D0012199
:10A3900000E00021002902D1002002905FE0694620
:10A3A000887F00F096FF202008A9087057E0174921
:10A3B000681A182101F0F8F90446002C28D105A8E4
:10A3C0000990202108A8017068464477807F1C21ED
:10A3D000484304494018069041E062E0CC26002042
:10A3E000FFFF0000D825002000210020B426002017
:10A3F0002B9D0100619C010041800000D8260020B7
:10A40000F0B90100C3040000082100209C260020B0
:10A41000F749681A182101F0C7F90446002C19D130
:10A42000302108A80170684644770121C1770C20CB
:10A430006043F0494018807A0221084002280ED07B
:10A440006946497F18225143E94A8818182101F0CA
:10A45000A9F904E000200290402008A908700298A1
:10A4600001281ED1042F06D108A90878032108432A
:10A4700008A908700EE0032F06D108A90878012169
:10A48000084308A9087005E008A9087802210843D4
:10A4900008A9087005A8099008A907A80D9A00F056
:10A4A0005BFF00BF0BE77FB50646002E02D1D24806
:10A4B00004B070BD00240BE000BF00210C206043FD
:10A4C000CE4A11500C2060438018817200BF641C7A
:10A4D000002CF1D0002403E02046FFF7FEFD641CB1
:10A4E000002CF9D01821C24801F05CF9002406E0E4
:10A4F0002046FFF78DFDFF20C1490855641C072C3D
:10A50000F6D35021684681810721C181BD48029060
:10A51000BD4902A8FFF79AFA0546002D30D1012067
:10A52000BA4908703078002821D100241CE0A1B27B
:10A530006A46B548FFF750FB0546002D0FD11C2198
:10A540006143B34A881800231C226946FFF752FC76
:10A550000546002D07D00020AC49087006E0002019
:10A56000AA49087002E0641C072CE0D308E06A46A0
:10A570009089D289504381B2A348FFF7ACFC0546CD
:10A58000284695E770B505460C4600BF9F48007801
:10A59000002802D19848801F70BD00BF002D01D156
:10A5A0009548F9E7002C01D19348F5E72068002889
:10A5B00001D19148F0E79148006800280FD18F49F8
:10A5C000206808600622A11D8C48001D01F040F89B
:10A5D00020798A49887200202870002601E0864E82
:10A5E0000A3E3046D8E770B5044600BF8748007879
:10A5F000002802D18048801F70BD00BF002C01D10F
:10A600007D48F9E700BF2078012806DA20780C2180
:10A6100048437A490858002802D17748801FEBE761
:10A6200000BF00BF6078012807DA60780C2148433A
:10A6300070494018807A012802D16F48801CDBE7FE
:10A6400000BF6D4DAD1F60780C214843694940182B
:10A65000807A02210840022809D161780C225143F6
:10A66000644A891808896549091D7EDF0546284620
:10A67000C2E7024600BF65480078002802D15E4864
:10A68000801F704700BF002A01D15B48F9E700290D
:10A6900001D15948F5E700BF1078012806DA107893
:10A6A0000C235843554B1858002802D15248801F9C
:10A6B000E7E700BF00BF5078012807DA50780C2385
:10A6C00058434C4BC018807A012802D14A48801C5C
:10A6D000D7E700BF50780C235843464BC018807A08
:10A6E00004231840002802D0012008700EE05078A2
:10A6F0000C2358433F4BC018807A40231840002851
:10A7000002D00220087001E0002008700020B8E7A5
:10A71000F0B5044600BF3D480078002802D1364815
:10A72000801FF0BD00BF002C01D13348F9E700299C
:10A7300001D13148F5E70868002801D12E48F0E73B
:10A740008868002801D12C48EBE700BF2078012859
:10A7500006DA20780C256843284D2858002802D1B5
:10A760002548801FDDE700BF00230022002024E0F1
:10A770001C254543264EAD19AD7EED07ED0F002D8E
:10A7800008D11C254543AD1997008E68F5511C4E24
:10A79000B054521C1C2545431D4EAD19AD7E0226FA
:10A7A0003540002D08D11C254543194EAD191035F3
:10A7B0009F000E68F5515B1C401C072805D20D79DF
:10A7C0009D4202D90D7B9542D2D80B710A730020AD
:10A7D000A7E7024608488230704770B5044600BFBC
:10A7E0000A480078002815D10348801F70BD00007A
:10A7F000B4260020CC2600200E800000D8260020A1
:10A800000D210020ADA20100002100200C2100201C
:10A81000D825002000BF002C01D1F748E6E700BF93
:10A820002078012806DA20780C214843F34908589B
:10A83000002802D1F048801FD8E700BF00BFA078F1
:10A84000072807DAA0781C214843ED494018807E8C
:10A85000FF2802D1E848801CC8E700BFA078FFF7B6
:10A86000FDFB05462846C1E770B5044600BFE54834
:10A870000078002802D1E048801F70BD00BF002C86
:10A8800001D1DD48F9E700BF2078012806DA2078F9
:10A890000C214843D9490858002802D1D648801FC6
:10A8A000EBE700BF002600250BE01C206843D449DD
:10A8B0004018807EFF2803D02846FFF7CFFB0646CE
:10A8C0006D1C072DF1D33046D7E7FEB504460D4683
:10A8D00000BFCC480078002802D1C748801FFEBDC9
:10A8E00000BF002C01D1C448F9E7002D01D1C248B6
:10A8F000F5E700BF2078012806DA20780C214843CC
:10A90000BE490858002802D1BB48801FE7E700BFB6
:10A9100000BF6078012807DA60780C214843BA4903
:10A920004018807A012802D1B348801CD7E700BFC5
:10A9300000BFA078072807DAA0781C214843B04957
:10A940004018807EFF2802D1AB48801CC7E700BFBB
:10A95000A868002812D0686800280FD068681428FA
:10A960000CD22878012809D1637818277B43A74F98
:10A97000DB19181D6A68A96800F06AFEA1786A46AA
:10A98000A348FFF729F9064628788000A1490A580C
:10A9900021466846904706463046A0E77CB5044607
:10A9A0000D4600BF97480078002802D19248801FCA
:10A9B0007CBD00BF002C01D18F48F9E7002D01D1EB
:10A9C0008D48F5E700BF2078012806DA20780C21B1
:10A9D00048438A490858002802D18748801FE7E782
:10A9E00000BF00BFA078072807DAA0781C214843E1
:10A9F00083494018807EFF2802D17F48801CD7E71A
:10AA000000BF60780C2148437F494018807A0221BA
:10AA10000840022802D078488330C9E7A868002897
:10AA200012D1686814280FD2287801280CD16078D8
:10AA30001821484375494018001DA8606078182106
:10AA40004843724908586860A1786A467048FFF721
:10AA5000C3F80646287880006F490A5821466846A0
:10AA6000904706463046A3E7014600BF6548007898
:10AA7000002802D16048801F704700BF002901D123
:10AA80005D48F9E700BF0878012806DA08780C224B
:10AA900050435A4A1058002802D15748801FEBE70C
:10AAA00000BF00BF8878072807DA88781C22504347
:10AAB000534A8018807EFF2802D14F48801CDBE774
:10AAC00000BF4D488230D7E702464B48833070477D
:10AAD00002464948833070470146474883307047F3
:10AAE000024600BF47480078002802D14248801F34
:10AAF000704700BF002901D13F48F9E7002A01D182
:10AB00003D48F5E700BF1078012806DA10780C23DD
:10AB100058433A4B1858002802D13748801FE7E7BE
:10AB200000BF107808700020E2E7FEB504460E462C
:10AB3000A1786A463648FFF74FF80546002D49D1FF
:10AB400060780C21484330494018807A2021084021
:10AB5000202801D0022E01D1304F04E0012E01D176
:10AB60002F4F00E02F4FA0781C225043244A811819
:10AB700000231C226846B8470546002D1AD1022E34
:10AB800018D060780C2148431F494018807A202152
:10AB9000884361780C2251431B4A89188872607877
:10ABA00018225043204A81181C2318226846B847AF
:10ABB000054600BF022E0DD020780C2148430F49D6
:10ABC0004018807A800013490A5821466846904709
:10ABD000054600BFFEBD70B504460D4600BF0948DE
:10ABE0000078002802D10448801F70BD00BF002CEF
:10ABF0001CD10148F9E700000E800000D826002093
:10AC0000D82500200C210020CC260020B4260020CE
:10AC100000210020BCB90100CCB901002B9D01002E
:10AC2000619C01000DA101009C260020002D01D196
:10AC3000FE48DAE700BF2078012806DA20780C21E8
:10AC40004843FB490858002802D1F848801FCCE748
:10AC500000BF00BFA078072807DAA0781C2148436E
:10AC6000F4494018807EFF2802D1F048801CBCE7E0
:10AC700000BF6078FF281CD12878022819D0A1785D
:10AC80001C225143EB4A89180846103007222946F6
:10AC900000F0DEFCA07801218140E74A12681143F0
:10ACA000E54A116000BF02212046FFF73EFF002663
:10ACB00001E0DE4EF61F304697E770B504460E46BB
:10ACC00000BFDE480078002802D1D848801F70BD40
:10ACD00000BF002C01D1D548F9E7002E01D1D3489F
:10ACE000F5E700BF2078012806DA20780C214843D8
:10ACF000CF490858002802D1CC48801FE7E700BFA1
:10AD0000CA4D093DA078FF2817D16078FF282AD0C6
:10AD100060780C214843CA494018807A02210840D3
:10AD2000022820D160780C225043C54A811807229E
:10AD3000304600F08DFC002515E0A0781C2148432A
:10AD4000BC494018807E0221084000280BD1A07821
:10AD50001C225043B74A8018014610310722304662
:10AD600000F076FC00252846B1E77CB50446A178C2
:10AD70006A46B448FEF730FF0546002D13D16178CE
:10AD800018225143B04A88181C2318226946FFF73D
:10AD900031F8A748807A8000AC490A5821466846B5
:10ADA0009047054600BF7CBDF0B589B0044600263B
:10ADB000FF20029000BFA1480078002801D109B00F
:10ADC000F0BD00BF00BF9A480068002800D1F6E738
:10ADD00000BF06A8FFF75DFA054600BF2F46002F0B
:10ADE00006D000BF9A4A9B493846FBF7F3F900BFEB
:10ADF00000BF0020019007900025201D0490342101
:10AE000068468182FF21817600210176002008902A
:10AE10002088102813D0A08808AA0221FFF7D8F8AC
:10AE20000546002D0BD10C21089848438449401851
:10AE3000C17A684681760898C1B268464176208812
:10AE4000142879D006DC10280BD0112879D01328CB
:10AE500074D110E1172872D0182871D05228F7D178
:10AE600010E208AF3A4601217B48FFF7B1F80090A5
:10AE70000098002807D102210C2238685043704AFC
:10AE80008018817201E00420009000980546002D92
:10AE900051D101261121684601730898C1B2684654
:10AEA0004176A1880C2208985043654A8018018198
:10AEB00002210C2208985043614A801881720C22AA
:10AEC000089951435E4A88180722A11D00F0C0FB73
:10AED000607B304000280AD0607B40085F49085CF6
:10AEE000FF280AD0607B4008085C029005E05A4ABF
:10AEF00002A9A01DFFF7C8F80546002D1BD1029836
:10AF0000C1B20C22089850434D4A8018C1720C21DE
:10AF10000898484311464018807A082108430C22BB
:10AF200008995143464A891888726946029888767A
:10AF300006A8FFF71AFFB0E141E002E0ACE1DAE079
:10AF40007EE10C21089848433D494018807A02214F
:10AF500088430C2208995143394A891888720C2178
:10AF60000898484311464018807A0821084008286C
:10AF70000ED10C210898484311464018807A402190
:10AF8000084040280FD1002106A8FFF7CEFD0AE0B7
:10AF90006846807EFF2806D06946887EFFF738F82D
:10AFA000FF206946887610210C2208985043244AD5
:10AFB0008018817201261220694608736DE10C2108
:10AFC000089848431E494018C07AFF2823D1E289D7
:10AFD00002A90020FFF758F80546002D1BD1029862
:10AFE000C1B20C2208985043154A8018C1720C2136
:10AFF0000898484311464018807A082108430C22DB
:10B00000089951430E4A89188872694602988876D1
:10B0100006A8FFF7AAFE0C210898484308494018E3
:10B02000C07AFF2821D01821089819E00E8000006E
:10B03000D8260020D8250020082100200C2100203F
:10B04000CC260020002100209C260020CCB9010045
:10B05000F0B9010037090000FFFF00000D210020BA
:10B060004843DD494018001D0190A0880022019945
:10B0700081DF054611E1132069460873A088D74A8D
:10B0800000217FDF0546002D02D00795002631E024
:10B090000C2108984843D2494018807A042108437B
:10B0A0000C2208995143CE4A8918887201260C2136
:10B0B0000898484311464018C07AFF281AD000BFAC
:10B0C000162069460873182208995143C54A891801
:10B0D000081D142100F066FB0C2108984843C04964
:10B0E0004018807A202108430C2208995143BC4A19
:10B0F00089188872D1E00C2108984843B849401853
:10B10000807A042188430C2208995143B44A891853
:10B1100088721420694608730126A079002802D09D
:10B12000A07907908BE0182108984843AA49411854
:10B13000E07A8870182108984843A7494118A07AF6
:10B140004870182208995143A34A8918081D1422EF
:10B1500021460C3100F07CFA0C2108984843A049A4
:10B160004018807A40210840402868D10C21089876
:10B1700048439B494018807A082108430C220899CB
:10B180005143974A891888720C2108984843114600
:10B190004018C07AFF2840D10C22089850430A4634
:10B1A000811802A800F09DF80546002D33D16946AC
:10B1B000029888760298C1B20C2208985043884AB7
:10B1C0008018C172A1891C2202985043864A8018B7
:10B1D0000183E07A4007C00F002817D01C2208998D
:10B1E0005143814A881810222146203100F030FA5C
:10B1F0001C21089848437C494018807E410849003A
:10B200001C2208985043784A80188176012106A8AC
:10B21000FFF78BFC13E0079511E00C2108984843D9
:10B220006F494018807A202108430C220899514325
:10B230006B4A89188872002106A8FFF776FC2CE07B
:10B240000C210898484366494018807A40210843F9
:10B250000C2208995143624A891888721520694660
:10B2600008730020079001265C48001F807A800048
:10B270005E4A115806A888470546002D01D05C4853
:10B2800007900AE05548001F807A8000574A1158FD
:10B2900006A88847079000E000BF00BF002E16D028
:10B2A00003A906A8079A00F057F86846007B122801
:10B2B0000DD100BF0C210898484349494018807AB5
:10B2C000012802D00898FEF708FF00BF00BF00BFAA
:10B2D00075E501218140474A12688A4345490A6061
:10B2E0007047F8B505460E46414FBF1C00242EE0BE
:10B2F0001C2060433C494018807EFF2826D13078CE
:10B30000022814D01C2060434018807E022188430C
:10B310001C216143344A891888761C2161438918AD
:10B32000084610300722314600F092F90BE01C204D
:10B3300060432D494018807E410849001C2060432D
:10B34000294A801881762C70002702E0641C072CA3
:10B35000CED300BF3846F8BDF8B504460D461646B4
:10B360001E48001F0768324629462046B847F8BDE8
:10B3700002460020704770B505460E463146284605
:10B38000FEF7C8FE0446002C02D100BF00BF0446F1
:10B39000204670BD02460020704770B505460E4637
:10B3A00031462846FEF715FF0446002C02D100BFA7
:10B3B00000BF0446204670BD01460020704770B5AE
:10B3C00005462846FEF728FF0446002C02D100BFA0
:10B3D00000BF0446204670BD9C260020DC260020CD
:10B3E000CC260020B4260020D8250020DCB901009E
:10B3F000418000000821002003210C4802680A4314
:10B4000002600B4802680A4302600A4880470A4803
:10B410000047FEE7FEE7FEE7FEE7FEE7FEE7000087
:10B4200006480749074A084B7047000024050040BA
:10B43000540500403FB50100C160010048270020CD
:10B4400048370020482F0020482F00204F485049FF
:10B45000086070474F48008CC0B201281FD14D488A
:10B46000808C0007000F002819D14A48806AF0211B
:10B470000840A02806D14748C06A0840002801D1EA
:10B48000012070474348806AF0210840D02806D147
:10B490004048C06A0840002801D10120F1E700209F
:10B4A000EFE73C48008CC0B2012812D13948808CAB
:10B4B0000007000F00280CD13648806AF0210840B0
:10B4C000402806D13348C06A0840002801D1012035
:10B4D00070470020FCE72F48008CC0B201282CD117
:10B4E0002C48808C0007000F002826D12948806A4C
:10B4F000F0210840002806D12648C06A08400028EC
:10B5000001D1012070472348806AF02108401028AB
:10B5100006D12048C06A0840002801D10120F1E787
:10B520001C48806AF0210840302806D11948C06ABA
:10B530000840002801D10120E4E70020E2E710B52F
:10B54000FFF7C9FF002805D0134814494860C81305
:10B5500013498861FFF7A5FF002802D00120114997
:10B560008860FFF777FF00280ED00F480068012899
:10B5700007D00E480C49086000BF0B48006801283E
:10B58000FBD1C0200849486110BD00000024F40030
:10B5900014210020C00F00F0DFFF07C000050040AD
:10B5A000006C00400006004000EC0640759300006F
:10B5B000034610B50B439B070FD1042A0DD308C8CF
:10B5C00010C9121FA342F8D018BA21BA884201D973
:10B5D000012010BD0020C04310BD002A03D0D307B6
:10B5E00003D0521C07E0002010BD03780C78401CEB
:10B5F000491C1B1B07D103780C78401C491C1B1BE2
:10B6000001D1921EF1D1184610BD000030B5441C86
:10B6100003E00178401C00290DD08107F9D10B4BC4
:10B62000DD0104C8D11A91432940FAD0001B0A0653
:10B6300003D0C01E30BD001B30BD0A0401D0801EE7
:10B6400030BD0902FCD0401E30BD000001010101E7
:10B65000F8B5042A2CD3830712D00B78491C037049
:10B66000401C521E83070BD00B78491C0370401CF2
:10B67000521E830704D00B78491C0370401C521ED5
:10B680008B079B0F05D0C91ADF002023DE1B08C9DA
:10B690000AE0FAF777FDF8BD1D4608C9FD401C46D3
:10B6A000B4402C4310C0121F042AF5D2F308C91A63
:10B6B000521EF0D40B78491C0370401C521EEAD471
:10B6C0000B78491C0370401C012AE4D409780170EE
:10B6D000F8BD431A70B593421BD28918801804E054
:10B6E000491E401E0B78521E03709307F8D106E0E6
:10B6F0001039103878C9103978C01038103A102A2B
:10B70000F6D203E0091F001F0B680360121FF9D572
:10B7100070BDFAF737FD70BDF8B50646144608430C
:10B72000800707D0751AA54219D20819102D13D217
:10B73000311907E03046FFF7CCFFF8BD401E491E27
:10B7400002780A70641EF9D2F8BD471B2A463946B2
:10B75000FFF77EFF641B3846A542F6D3011B224645
:10B760003046FFF775FFF8BD01E004C0091F04294A
:10B77000FBD28B0701D50280801CC90700D0027064
:10B78000704700290BD0C30702D00270401C491E2D
:10B79000022904D3830702D50280801C891EE3E7B7
:10B7A0000022EEE70022DFE7002203098B422CD3C0
:10B7B000030A8B4211D300239C464EE003460B4301
:10B7C0003CD4002243088B4231D303098B421CD363
:10B7D000030A8B4201D394463FE0C3098B4201D355
:10B7E000CB01C01A524183098B4201D38B01C01A8D
:10B7F000524143098B4201D34B01C01A5241030904
:10B800008B4201D30B01C01A5241C3088B4201D3B2
:10B81000CB00C01A524183088B4201D38B00C01A5F
:10B82000524143088B4201D34B00C01A5241411A86
:10B8300000D201465241104670475DE0CA0F00D069
:10B840004942031000D34042534000229C46030962
:10B850008B422DD3030A8B4212D3FC22890112BAE8
:10B86000030A8B420CD3890192118B4208D38901C0
:10B8700092118B4204D389013AD0921100E08909D8
:10B88000C3098B4201D3CB01C01A524183098B42B9
:10B8900001D38B01C01A524143098B4201D34B01A2
:10B8A000C01A524103098B4201D30B01C01A524105
:10B8B000C3088B4201D3CB00C01A524183088B428C
:10B8C00001D38B00C01A5241D9D243088B4201D315
:10B8D0004B00C01A5241411A00D201466346524100
:10B8E0005B10104601D34042002B00D549427047FF
:10B8F00063465B1000D3404201B50020C046C046FD
:10B9000002BD704770477047754600F025F8AE4697
:10B91000050069465346C008C000854618B020B5EA
:10B92000FFF77EFD60BC00274908B6460026C0C56B
:10B93000C0C5C0C5C0C5C0C5C0C5C0C5C0C5403DE7
:10B9400049008D46704710B50446C046C0462046A3
:10B95000FAF701FC10BD000000487047E426002003
:10B9600001491820ABBEFEE726000200704730B444
:10B970007446641E2578641CAB4204D3635D5B008F
:10B98000E31830BC18471D46F8E700000D18010009
:10B990000F1801000A180100CDAB020023D113EFEC
:10B9A0005F782315DEEF12120000000023D113EFA1
:10B9B0005F782315DEEF12120000000071B3010062
:10B9C00015A10100CDA1010077B3010095B30100DD
:10B9D000D3A1010013A201009BB30100B9B3010080
:10B9E00019A201008DA20100BFB30100FFFFFFFFFC
:10B9F0002E2E5C2E2E5C2E2E5C2E2E5C2E2E5C535C
:10BA00006F757263655C626C655C646576696365BD
:10BA10005F6D616E616765725C6465766963655FC1
:10BA20006D616E616765725F70657269706865727D
:10BA3000616C2E630000000058BA01000020002055
:10BA4000180100000461010070BB010018210020F2
:10BA500030160000206101006E61766964646E003A
:10BA6000FFFF0100000000000000000000000000D7
:10BA700000000000000000000000000000000000C6
:10BA800000000000000000000000000000616C6980
:10BA900069690000000000000000000000000000D4
:10BAA0000000000000000000000000000000000096
:10BAB0000000000000000000000000000000000086
:10BAC0000000000000000000000000000000000076
:10BAD0000000000000000000000000000000000066
